{
  "_format": "hh-sol-artifact-1",
  "contractName": "DataList",
  "sourceName": "contracts/DataList.sol",
  "abi": [
    {
      "inputs": [
        {
          "internalType": "string",
          "name": "name",
          "type": "string"
        }
      ],
      "name": "add",
      "outputs": [],
      "stateMutability": "nonpayable",
      "type": "function"
    },
    {
      "inputs": [
        {
          "internalType": "string",
          "name": "search",
          "type": "string"
        }
      ],
      "name": "find",
      "outputs": [
        {
          "internalType": "bool",
          "name": "found",
          "type": "bool"
        }
      ],
      "stateMutability": "nonpayable",
      "type": "function"
    }
  ],
  "bytecode": "0x608060405234801561001057600080fd5b5061039d806100206000396000f3fe608060405234801561001057600080fd5b50600436106100365760003560e01c806382b7b5001461003b578063b0c8f9dc1461010c575b600080fd5b6100f46004803603602081101561005157600080fd5b810190808035906020019064010000000081111561006e57600080fd5b82018360208201111561008057600080fd5b803590602001918460018302840111640100000000831117156100a257600080fd5b91908080601f016020809104026020016040519081016040528093929190818152602001838380828437600081840152601f19601f8201169050808301925050505050505091929192905050506101c7565b60405180821515815260200191505060405180910390f35b6101c56004803603602081101561012257600080fd5b810190808035906020019064010000000081111561013f57600080fd5b82018360208201111561015157600080fd5b8035906020019184600183028401116401000000008311171561017357600080fd5b91908080601f016020809104026020016040519081016040528093929190818152602001838380828437600081840152601f19601f82011690508083019250505050505050919291929050505061028b565b005b600080600090505b600080549050811015610280578280519060200120600082815481106101f157fe5b9060005260206000200160405180828054600181600116156101000203166002900480156102565780601f10610234576101008083540402835291820191610256565b820191906000526020600020905b815481529060010190602001808311610242575b505091505060405180910390201415610273576001915050610286565b80806001019150506101cf565b50600090505b919050565b6000819080600181540180825580915050600190039060005260206000200160009091909190915090805190602001906102c69291906102ca565b5050565b828054600181600116156101000203166002900490600052602060002090601f016020900481019282601f1061030b57805160ff1916838001178555610339565b82800160010185558215610339579182015b8281111561033857825182559160200191906001019061031d565b5b509050610346919061034a565b5090565b5b8082111561036357600081600090555060010161034b565b509056fea264697066735822122072e092ec01f69caeaf355f85dcdc28c0956f8ab281611985511e5420ef1c4a7b64736f6c63430007030033",
  "linkReferences": {},
  "deployedLinkReferences": {}
}